:020000040000FA
:0400000007EF00F016
:100008005382DFED05F01FEF06F01BC0D9FF1CC0BF
:10001800DAFF430EDE18D8A414EF00F016EF00F054
:100028003FEF01F020EE01F01B50D9261C50DA22D8
:100038002F0EDF6422EF00F024EF00F03BEF01F019
:1000480020EE01F01B50D9261C50DA22330EDF6057
:1000580030EF00F032EF00F03BEF01F020EE02F05D
:100068001B50D9261C50DA222F0EDF643EEF00F019
:1000780040EF00F03BEF01F020EE02F01B50D926D4
:100088001C50DA223A0EDF604CEF00F04EEF00F021
:100098003BEF01F020EE03F01B50D9261C50DA226A
:1000A8002F0EDF645AEF00F05CEF00F03BEF01F039
:1000B80020EE03F01B50D9261C50DA223A0EDF60DE
:1000C80068EF00F06AEF00F03BEF01F020EE04F07B
:1000D8001B50D9261C50DA222C0EDE18D8A477EF34
:1000E80000F079EF00F03BEF01F020EE05F01B5037
:1000F800D9261C50DA222F0EDF6485EF00F087EF37
:1001080000F03BEF01F020EE05F01B50D9261C5003
:10011800DA22330EDF6093EF00F095EF00F03BEF4B
:1001280001F020EE06F01B50D9261C50DA222F0EC3
:10013800DF64A1EF00F0A3EF00F03BEF01F020EE49
:1001480006F01B50D9261C50DA223A0EDF60AFEFBA
:1001580000F0B1EF00F03BEF01F020EE07F01B508C
:10016800D9261C50DA222F0EDF64BDEF00F0BFEF56
:1001780000F03BEF01F020EE07F01B50D9261C5091
:10018800DA223A0EDF60CBEF00F0CDEF00F03BEF64
:1001980001F0EFEC06F020EE01F01B50D9261C50C0
:1001A800DA22DF501D6E1D50640DF3CF1EF0F4CF20
:1001B8001FF020EE02F01B50D9261C50DA22DF5027
:1001C800206E20500A0DF3501E26F4501F2220EEF8
:1001D80003F01B50D9261C50DA22DF50216E215023
:1001E8001E26000E1F22300E1E24506EEB0E1F20FE
:1001F800516E20EE05F01B50D9261C50DA22DF5034
:100208001D6E1D50640DF3CF1EF0F4CF1FF020EECD
:1002180006F01B50D9261C50DA22DF50206E2050E1
:100228000A0DF3501E26F4501F2220EE07F01B5033
:10023800D9261C50DA22DF50216E21501E26000ECE
:100248001F22300E1E244E6EEB0E1F204F6E50C024
:1002580015F051C016F0DEEC04F04EC015F04FC09A
:1002680016F06BEC04F03BEC07F066EF03F0C9EC1A
:1002780006F066EF03F01BC0D9FF1CC0DAFF470E7B
:10028800DE18D8A44AEF01F04CEF01F0E5EF01F0D9
:1002980020EE01F01B50D9261C50DA224F0EDE1832
:1002A800D8A459EF01F05BEF01F0E1EF01F020EE87
:1002B80002F01B50D9261C50DA22540EDE18D8A49E
:1002C80068EF01F06AEF01F0E1EF01F020EE03F0D2
:1002D8001B50D9261C50DA224F0EDE18D8A477EF0F
:1002E80001F079EF01F0E1EF01F020EE04F01B508E
:1002F800D9261C50DA22480EDE18D8A486EF01F061
:1003080088EF01F0E1EF01F020EE05F01B50D9264F
:100318001C50DA224F0EDE18D8A495EF01F097EFA3
:1003280001F0E1EF01F020EE06F01B50D9261C5039
:10033800DA224D0EDE18D8A4A4EF01F0A6EF01F0E2
:10034800E1EF01F020EE07F01B50D9261C50DA220D
:10035800450EDE18D8A4B3EF01F0B5EF01F0E1EFD8
:1003680001F0EFEC06F0838083928396839481A258
:10037800C0EF01F0C2EF01F0BBEF01F08386838488
:1003880084EC07F0838083828396839481A0CFEFE7
:1003980001F0D1EF01F0CAEF01F08386838461ECAC
:1003A80007F0000E4D6E000E4C6E000E4B6E000EE8
:1003B8004A6E3BEC07F066EF03F015EC07F066EFCA
:1003C80003F01BC0D9FF1CC0DAFF530EDE18D8A4F7
:1003D800F0EF01F0F2EF01F062EF02F020EE01F031
:1003E8001B50D9261C50DA22540EDE18D8A4FFEF71
:1003F80001F001EF02F0E1EF01F020EE02F01B50F6
:10040800D9261C50DA22430EDE18D8A40EEF02F0CB
:1004180010EF02F0E1EF01F020EE03F01B50D926B7
:100428001C50DA22540EDE18D8A41DEF02F01FEF7C
:1004380002F0E1EF01F020EE04F01B50D9261C5029
:10044800DA224F0EDE18D8A42CEF02F02EEF02F0BD
:10045800E1EF01F020EE05F01B50D9261C50DA22FE
:10046800550EDE18D8A43BEF02F03DEF02F0E1EFA5
:1004780001F020EE06F01B50D9261C50DA22430E5C
:10048800DE18D8A44AEF02F04CEF02F0E1EF01F0D9
:1004980020EE07F01B50D9261C50DA22480EDE1831
:1004A800D8A459EF02F05BEF02F0E1EF01F0EFECB6
:1004B80006F0838E3BEC07F066EF03F01BC0D9FF14
:1004C8001CC0DAFF4D0EDE18D8A46DEF02F06FEFF6
:1004D80002F0EBEF02F020EE01F01B50D9261C5081
:1004E800DA22410EDE18D8A47CEF02F07EEF02F08B
:1004F800E1EF01F020EE02F01B50D9261C50DA2261
:100508004B0EDE18D8A48BEF02F08DEF02F0E1EF6E
:1005180001F020EE03F01B50D9261C50DA22450EBC
:10052800DE18D8A49AEF02F09CEF02F0E1EF01F098
:1005380020EE04F01B50D9261C50DA22410EDE189A
:10054800D8A4A9EF02F0ABEF02F0E1EF01F020EE42
:1005580005F01B50D9261C50DA22540EDE18D8A4F8
:10056800B8EF02F0BAEF02F0E1EF01F020EE06F08A
:100578001B50D9261C50DA22410EDE18D8A4C7EF2A
:1005880002F0C9EF02F0E1EF01F020EE07F01B5096
:10059800D9261C50DA22500EDE18D8A4D6EF02F065
:1005A800D8EF02F0E1EF01F0EFEC06F0838E0B0ECE
:1005B8001E6E260E1D6E5E0EE82EFED71D2EFCD773
:1005C8001E2EFAD7839E3BEC07F066EF03F01BC0A4
:1005D800D9FF1CC0DAFF540EDE18D8A4F6EF02F0DB
:1005E800F8EF02F0E1EF01F020EE01F01B50D92600
:1005F8001C50DA22410EDE18D8A405EF03F007EFED
:1006080003F0E1EF01F020EE02F01B50D9261C5058
:10061800DA224B0EDE18D8A414EF03F016EF03F01D
:10062800E1EF01F020EE03F01B50D9261C50DA222E
:10063800450EDE18D8A423EF03F025EF03F0E1EF11
:1006480001F020EE04F01B50D9261C50DA224C0E83
:10065800DE18D8A432EF03F034EF03F0E1EF01F035
:1006680020EE05F01B50D9261C50DA22490EDE1860
:10067800D8A441EF03F043EF03F0E1EF01F020EEDF
:1006880006F01B50D9261C50DA22460EDE18D8A4D4
:1006980050EF03F052EF03F0E1EF01F020EE07F026
:1006A8001B50D9261C50DA22540EDE18D8A45FEF4E
:1006B80003F061EF03F0E1EF01F0EFEC06F0839E49
:1006C8003BEC07F01200000E156E13BE70EF03F03E
:1006D8006EEF03F07AEF03F0131E121E111E106C5A
:1006E800000E112212221322010E156E0FBE81EF89
:1006F80003F07FEF03F08BEF03F00F1E0E1E0D1EAD
:100708000C6C000E0D220E220F22010E151A000E7F
:10071800166E000E176E000E186E000E196E105031
:10072800111012101310D8B49CEF03F09EEF03F0D1
:10073800D4EF03F0010E146EA8EF03F0D890103632
:10074800113612361336142A13AEADEF03F0AFEF9D
:1007580003F0A2EF03F0D89016361736183619367C
:1007680010500C5C11500D5812500E5813500F5861
:10077800D8A0C1EF03F0C3EF03F0CCEF03F01050A3
:100788000C5E11500D5A12500E5A13500F5A168003
:10079800D8901332123211321032142EAFEF03F008
:1007A8001550D8B4DAEF03F0DCEF03F0E4EF03F010
:1007B800191E181E171E166C000E17221822192251
:1007C80016C00CF017C00DF018C00EF019C00FF0CD
:1007D8001200720ED36E800E1A6E250E1B6E000E5E
:1007E8001C6E000E1D6E5AEC06F0F18EFAEC07F046
:1007F80021EC08F077EC08F0AB9883848386838833
:10080800839A839C838083928396839481A20FEF3B
:1008180004F011EF04F00AEF04F08386838484EC7B
:1008280007F0838083828396839481A01EEF04F06F
:1008380020EF04F019EF04F08386838461EC07F05D
:10084800000E4D6E000E4C6E000E4B6E000E4A6E82
:100858003BEC07F0AB88000E2C6E220E2C24D96ED0
:10086800DA6A000EDA226EEC08F0DF6E2C2A070E28
:100878002C6441EF04F043EF04F031EF04F0000E74
:100888002B6E000E2A6E220E2A24D96E000E2B2003
:10089800DA6EDF504EEC08F02A4A2B2A2BBE5EEFA8
:1008A80004F02B5009E1080E2A5CD8A05EEF04F092
:1008B80060EF04F047EF04F0AB98220E1B6E000EB9
:1008C8001C6E09EC00F02EEF04F007EF00F04A5020
:1008D800155C4B501658D8B074EF04F076EF04F05E
:1008E800A2EF04F083808392000E186E000E176E3C
:1008F80089EF04F0ED0E1724D96E000E1820DA6E79
:10090800DF504EEC08F0174A182AED0E0C6E000E58
:100918000D6EC4EC07F00C50175C0D501858D8A099
:1009280098EF04F09AEF04F07EEF04F015504A5C5B
:10093800126E16504B58136E9EEC05F015504A5C1B
:1009480016504B58D8B0ABEF04F0ADEF04F0D9EF28
:1009580004F083908382000E1A6E000E196EC0EFA9
:1009680004F0390E1924D96E000E1A20DA6EDF5001
:100978004EEC08F0194A1A2A390E0C6E000E0D6E4C
:10098800C4EC07F00C50195C0D501A58D8A0CFEFE2
:1009980004F0D1EF04F0B5EF04F04A50155C126E84
:1009A8004B501658136E9EEC05F015C04AF016C051
:1009B8004BF012004C50155C4D501658D8B0E7EF6C
:1009C80004F0E9EF04F015EF05F083808382000E50
:1009D800186E000E176EFCEF04F02D0E1724D96E5A
:1009E800000E1820DA6EDF504EEC08F0174A182A6D
:1009F8002D0E0C6E000E0D6EC4EC07F00C50175C3B
:100A08000D501858D8A00BEF05F00DEF05F0F1EFD9
:100A180004F015504C5C126E16504D58136E9EEC37
:100A280005F015504C5C16504D58D8B01EEF05F027
:100A380020EF05F04CEF05F083908392000E1A6EBC
:100A4800000E196E33EF05F0E00E1924D96E000E72
:100A58001A20DA6EDF504EEC08F0194A1A2AE00E16
:100A68000C6E000E0D6EC4EC07F00C50195C0D50A6
:100A78001A58D8A042EF05F044EF05F028EF05F02A
:100A88004C50155C126E4D501658136E9EEC05F0C6
:100A980015C04CF016C04DF01200456D65726765C3
:100AA8006E637920427574746F6E2050726573732B
:100AB80065640A005354494C4C20494E20494E5411
:100AC800455252555054494F4E0A00537563636559
:100AD800737366756C6C79204578656375746564A5
:100AE8000A00436F6D6D616E6420696E20457865FC
:100AF800637574696F6E0A004C696D69742079209A
:100B0800526561636865640A004C696D6974207890
:100B180020526561636865640A00476F696E6720E3
:100B280052696768742000476F696E6720446F7761
:100B38006E0A2000000E526E000E456E000E446EC6
:100B480083948396000E496E010E486EBFEF05F040
:100B580082A4B1EF05F0B3EF05F0B5EF05F033EC83
:100B680008F05204D8A4BBEF05F0BDEF05F0BFEFC5
:100B780005F064EC08F012C00CF013C00DF0000E84
:100B88000F6E050E0E6E0EEC08F00C50445C4550CE
:100B9800800A146E0D50800A1458D8A0D6EF05F0BC
:100BA800D8EF05F0ACEF05F083848386000E496E1C
:100BB800000E486E12000600D9CF08F0DACF09F00F
:100BC8001A0E076EF80EE82EFED7072EFCD700D0B7
:100BD800F0A2F1EF05F0F3EF05F0F6EF05F092EC77
:100BE80006F0F092F092000E0B6E000E0A6E08EFFF
:100BF80006F07A0E0A24D96E000E0B20DA6EDF504A
:100C080059EC08F00A4A0B2A7A0E016E000E026EA1
:100C1800DFEC07F001500A5C02500B58D8A017EF20
:100C280006F019EF06F0FDEF05F009C0DAFF08C07D
:100C3800D9FF539211004E0EF66E0F0EF76E000E8E
:100C4800F86E01EE00F010EE39F00900F5CFEEFF76
:100C5800E550E150FAE1A20EF66E0A0EF76E000EAC
:100C6800F86E00EE60F010EE9AF00900F5CFEEFF96
:100C7800E550E150FAE1840EF66E100EF76E000EA4
:100C8800F86E00EE2DF010EE17F00900F5CFEEFF2C
:100C9800E550E150FAE100EE44F00F0EEE6AE80686
:100CA800FDE1539053920001EDEF03F0949C948E74
:100CB8001AC010F01BC011F01CC012F01DC013F0B8
:100CC800000E0C6E120E0D6E7A0E0E6E000E0F6E6A
:100CD80067EC03F00CC01EF00DC01FF00EC020F032
:100CE8000FC021F01EC00CF01FC00DF020C00EF088
:100CF80021C00FF0400E106E000E116E000E126E25
:100D0800000E136E67EC03F00C04AF6EAC94AC9855
:100D1800AB8EAC9CAC8AAB9CAB881200000E066E06
:100D2800000E056EA3EF06F0600E0524D96E000EC6
:100D38000620DA6EDF5059EC08F0054A062A600EE4
:100D4800016E000E026EDFEC07F00150055C0250E8
:100D58000658D8A0B2EF06F0B4EF06F098EF06F008
:100D68008384838681B4BBEF06F0BDEF06F0B6EF4F
:100D780006F048044910D8A4C4EF06F0C6EF06F000
:100D8800C8EF06F0839483961200000E116E000ED1
:100D9800106EDAEF06F0000E1024D96E010E112045
:100DA800DA6EDF504EEC08F0104A112A000E0C6E75
:100DB800010E0D6EC4EC07F00C50105C0D5011586C
:100DC800D8A0E9EF06F0EBEF06F0CFEF06F0838846
:100DD800839A839C1200000E116E000E106E00EFB5
:100DE80007F0A80E1024D96E000E1120DA6EDF501D
:100DF8004EEC08F0104A112AA80E0C6E000E0D6E6B
:100E0800C4EC07F00C50105C0D501158D8A00FEF2F
:100E180007F011EF07F0F5EF06F08398839A838CBB
:100E28001200000E116E000E106E26EF07F01E0E57
:100E38001024D96E010E1120DA6EDF504EEC08F046
:100E4800104A112A1E0E0C6E010E0D6EC4EC07F02E
:100E58000C50105C0D501158D8A035EF07F037EF43
:100E680007F01BEF07F08388839A839C1200000E1B
:100E7800116E000E106E4CEF07F0910E1024D96E13
:100E8800000E1120DA6EDF504EEC08F0104A112ADD
:100E9800910E0C6E000E0D6EC4EC07F00C50105C39
:100EA8000D501158D8A05BEF07F05DEF07F041EF48
:100EB80007F08398838A839C1200000E116E000E3F
:100EC800106E72EF07F0BE0E1024D96E000E1120BE
:100ED800DA6EDF504EEC08F0104A112ABE0E0C6E86
:100EE800000E0D6EC4EC07F00C50105C0D5011583C
:100EF800D8A081EF07F083EF07F067EF07F0120043
:100F0800000E116E000E106E95EF07F0CF0E102434
:100F1800D96E000E1120DA6EDF504EEC08F0104A40
:100F2800112ACF0E0C6E000E0D6EC4EC07F00C509B
:100F3800105C0D501158D8A0A4EF07F0A6EF07F0E9
:100F48008AEF07F01200204572726F7220313A2042
:100F5800496E76616C696420436F6F7264696E6173
:100F680074650A00204572726F7220303A20496E0B
:0F0F780076616C696420436F6D6D616E640A0071
:100F88000CC00EF00DC00FF0CCEF07F00C4A0D2A84
:100F98000CC0D9FF0DC0DAFFDF50D8A4D6EF07F098
:100FA800D8EF07F0CAEF07F00E500C5C0C6E0F502C
:100FB8000D580D6E120001C003F002C004F0E7EFF7
:100FC80007F0014A022A01C0D9FF02C0DAFFDF5048
:100FD800D8A4F1EF07F0F3EF07F0E5EF07F00350BF
:100FE800015C016E04500258026E1200070EB46EC6
:100FF800000E836E000E8C6E000E956E000E826ED3
:10100800000E8B6E000E816E000E8A6E93688386CA
:10101800838412000C500E02F3CF10F0F4CF11F0BD
:101028000C500F02F35011260D500E02F3501126EA
:1010380010C00CF011C00DF01200F90ECB6E7D0E31
:10104800BE6E7D0EBB6E94929494030ECA6E0C0E07
:10105800BD6E0C0EBA6E000ECC6ECA84120052041D
:10106800D8A439EF08F03BEF08F03DEF08F041EF66
:1010780008F0444A452A010E526E1200476F696E05
:1010880067204C6566742000476F696E672055704D
:031098000A20002B
:10109C000C6E9EA854EF08F056EF08F04FEF08F0D6
:1010AC000CC0ADFF1200016E9EA85FEF08F061EF5F
:1010BC0008F05AEF08F001C0ADFF120082B469EFDE
:1010CC0008F06BEF08F06DEF08F0000E526E120096
:1010DC009EAA73EF08F075EF08F06EEF08F0AE50B3
:1010EC001200D09EF28CF28EF092F188F088F09281
:0210FC001200E0
:020000040020DA
:08000000FFFFFFFFFFFFFFFF00
:020000040030CA
:0E000000000B1F1EFF0181FF0FC00FE00F401D
:00000001FF
