:020000040000FA
:0400000007EF00F016
:100008005382DEED05F01EEF06F01BC0D9FF1CC0C1
:10001800DAFF430EDE18D8A414EF00F016EF00F054
:100028003FEF01F020EE01F01B50D9261C50DA22D8
:100038002F0EDF6422EF00F024EF00F03BEF01F019
:1000480020EE01F01B50D9261C50DA22330EDF6057
:1000580030EF00F032EF00F03BEF01F020EE02F05D
:100068001B50D9261C50DA222F0EDF643EEF00F019
:1000780040EF00F03BEF01F020EE02F01B50D926D4
:100088001C50DA223A0EDF604CEF00F04EEF00F021
:100098003BEF01F020EE03F01B50D9261C50DA226A
:1000A8002F0EDF645AEF00F05CEF00F03BEF01F039
:1000B80020EE03F01B50D9261C50DA223A0EDF60DE
:1000C80068EF00F06AEF00F03BEF01F020EE04F07B
:1000D8001B50D9261C50DA222C0EDE18D8A477EF34
:1000E80000F079EF00F03BEF01F020EE05F01B5037
:1000F800D9261C50DA222F0EDF6485EF00F087EF37
:1001080000F03BEF01F020EE05F01B50D9261C5003
:10011800DA22330EDF6093EF00F095EF00F03BEF4B
:1001280001F020EE06F01B50D9261C50DA222F0EC3
:10013800DF64A1EF00F0A3EF00F03BEF01F020EE49
:1001480006F01B50D9261C50DA223A0EDF60AFEFBA
:1001580000F0B1EF00F03BEF01F020EE07F01B508C
:10016800D9261C50DA222F0EDF64BDEF00F0BFEF56
:1001780000F03BEF01F020EE07F01B50D9261C5091
:10018800DA223A0EDF60CBEF00F0CDEF00F03BEF64
:1001980001F0EEEC06F020EE01F01B50D9261C50C1
:1001A800DA22DF501D6E1D50640DF3CF1EF0F4CF20
:1001B8001FF020EE02F01B50D9261C50DA22DF5027
:1001C800206E20500A0DF3501E26F4501F2220EEF8
:1001D80003F01B50D9261C50DA22DF50216E215023
:1001E8001E26000E1F22300E1E24506EEB0E1F20FE
:1001F800516E20EE05F01B50D9261C50DA22DF5034
:100208001D6E1D50640DF3CF1EF0F4CF1FF020EECD
:1002180006F01B50D9261C50DA22DF50206E2050E1
:100228000A0DF3501E26F4501F2220EE07F01B5033
:10023800D9261C50DA22DF50216E21501E26000ECE
:100248001F22300E1E244E6EEB0E1F204F6E50C024
:1002580015F051C016F0DDEC04F04EC015F04FC09B
:1002680016F06AEC04F03AEC07F066EF03F0C8EC1D
:1002780006F066EF03F01BC0D9FF1CC0DAFF470E7B
:10028800DE18D8A44AEF01F04CEF01F0E5EF01F0D9
:1002980020EE01F01B50D9261C50DA224F0EDE1832
:1002A800D8A459EF01F05BEF01F0E1EF01F020EE87
:1002B80002F01B50D9261C50DA22540EDE18D8A49E
:1002C80068EF01F06AEF01F0E1EF01F020EE03F0D2
:1002D8001B50D9261C50DA224F0EDE18D8A477EF0F
:1002E80001F079EF01F0E1EF01F020EE04F01B508E
:1002F800D9261C50DA22480EDE18D8A486EF01F061
:1003080088EF01F0E1EF01F020EE05F01B50D9264F
:100318001C50DA224F0EDE18D8A495EF01F097EFA3
:1003280001F0E1EF01F020EE06F01B50D9261C5039
:10033800DA224D0EDE18D8A4A4EF01F0A6EF01F0E2
:10034800E1EF01F020EE07F01B50D9261C50DA220D
:10035800450EDE18D8A4B3EF01F0B5EF01F0E1EFD8
:1003680001F0EEEC06F0839083828396839481A05B
:10037800C0EF01F0C2EF01F0BBEF01F08386838488
:1003880083EC07F0838083828396839481A2CFEFE6
:1003980001F0D1EF01F0CAEF01F08386838460ECAD
:1003A80007F0000E4D6E000E4C6E000E4B6E000EE8
:1003B8004A6E3AEC07F066EF03F014EC07F066EFCC
:1003C80003F01BC0D9FF1CC0DAFF530EDE18D8A4F7
:1003D800F0EF01F0F2EF01F062EF02F020EE01F031
:1003E8001B50D9261C50DA22540EDE18D8A4FFEF71
:1003F80001F001EF02F0E1EF01F020EE02F01B50F6
:10040800D9261C50DA22430EDE18D8A40EEF02F0CB
:1004180010EF02F0E1EF01F020EE03F01B50D926B7
:100428001C50DA22540EDE18D8A41DEF02F01FEF7C
:1004380002F0E1EF01F020EE04F01B50D9261C5029
:10044800DA224F0EDE18D8A42CEF02F02EEF02F0BD
:10045800E1EF01F020EE05F01B50D9261C50DA22FE
:10046800550EDE18D8A43BEF02F03DEF02F0E1EFA5
:1004780001F020EE06F01B50D9261C50DA22430E5C
:10048800DE18D8A44AEF02F04CEF02F0E1EF01F0D9
:1004980020EE07F01B50D9261C50DA22480EDE1831
:1004A800D8A459EF02F05BEF02F0E1EF01F0EEECB7
:1004B80006F0838E3AEC07F066EF03F01BC0D9FF15
:1004C8001CC0DAFF4D0EDE18D8A46DEF02F06FEFF6
:1004D80002F0EBEF02F020EE01F01B50D9261C5081
:1004E800DA22410EDE18D8A47CEF02F07EEF02F08B
:1004F800E1EF01F020EE02F01B50D9261C50DA2261
:100508004B0EDE18D8A48BEF02F08DEF02F0E1EF6E
:1005180001F020EE03F01B50D9261C50DA22450EBC
:10052800DE18D8A49AEF02F09CEF02F0E1EF01F098
:1005380020EE04F01B50D9261C50DA22410EDE189A
:10054800D8A4A9EF02F0ABEF02F0E1EF01F020EE42
:1005580005F01B50D9261C50DA22540EDE18D8A4F8
:10056800B8EF02F0BAEF02F0E1EF01F020EE06F08A
:100578001B50D9261C50DA22410EDE18D8A4C7EF2A
:1005880002F0C9EF02F0E1EF01F020EE07F01B5096
:10059800D9261C50DA22500EDE18D8A4D6EF02F065
:1005A800D8EF02F0E1EF01F0EEEC06F0838E0B0ECF
:1005B8001E6E260E1D6E5E0EE82EFED71D2EFCD773
:1005C8001E2EFAD7839E3AEC07F066EF03F01BC0A5
:1005D800D9FF1CC0DAFF540EDE18D8A4F6EF02F0DB
:1005E800F8EF02F0E1EF01F020EE01F01B50D92600
:1005F8001C50DA22410EDE18D8A405EF03F007EFED
:1006080003F0E1EF01F020EE02F01B50D9261C5058
:10061800DA224B0EDE18D8A414EF03F016EF03F01D
:10062800E1EF01F020EE03F01B50D9261C50DA222E
:10063800450EDE18D8A423EF03F025EF03F0E1EF11
:1006480001F020EE04F01B50D9261C50DA224C0E83
:10065800DE18D8A432EF03F034EF03F0E1EF01F035
:1006680020EE05F01B50D9261C50DA22490EDE1860
:10067800D8A441EF03F043EF03F0E1EF01F020EEDF
:1006880006F01B50D9261C50DA22460EDE18D8A4D4
:1006980050EF03F052EF03F0E1EF01F020EE07F026
:1006A8001B50D9261C50DA22540EDE18D8A45FEF4E
:1006B80003F061EF03F0E1EF01F0EEEC06F0839E4A
:1006C8003AEC07F01200000E156E13BE70EF03F03F
:1006D8006EEF03F07AEF03F0131E121E111E106C5A
:1006E800000E112212221322010E156E0FBE81EF89
:1006F80003F07FEF03F08BEF03F00F1E0E1E0D1EAD
:100708000C6C000E0D220E220F22010E151A000E7F
:10071800166E000E176E000E186E000E196E105031
:10072800111012101310D8B49CEF03F09EEF03F0D1
:10073800D4EF03F0010E146EA8EF03F0D890103632
:10074800113612361336142A13AEADEF03F0AFEF9D
:1007580003F0A2EF03F0D89016361736183619367C
:1007680010500C5C11500D5812500E5813500F5861
:10077800D8A0C1EF03F0C3EF03F0CCEF03F01050A3
:100788000C5E11500D5A12500E5A13500F5A168003
:10079800D8901332123211321032142EAFEF03F008
:1007A8001550D8B4DAEF03F0DCEF03F0E4EF03F010
:1007B800191E181E171E166C000E17221822192251
:1007C80016C00CF017C00DF018C00EF019C00FF0CD
:1007D8001200720ED36E800E1A6E250E1B6E000E5E
:1007E8001C6E000E1D6E59EC06F0F9EC07F020ECBB
:1007F80008F076EC08F0AB98838483868388839A24
:10080800839C839083828396839481A00EEF04F067
:1008180010EF04F009EF04F08386838483EC07F07B
:10082800838083828396839481A21DEF04F01FEF57
:1008380004F018EF04F08386838460EC07F0000E60
:100848004D6E000E4C6E000E4B6E000E4A6E3AEC6A
:1008580007F0AB88000E2C6E220E2C24D96EDA6AB3
:10086800000EDA226DEC08F0DF6E2C2A070E2C64DD
:1008780040EF04F042EF04F030EF04F0000E2B6E6E
:10088800000E2A6E220E2A24D96E000E2B20DA6E54
:10089800DF504DEC08F02A4A2B2A2BBE5DEF04F0FE
:1008A8002B5009E1080E2A5CD8A05DEF04F05FEF39
:1008B80004F046EF04F0AB98220E1B6E000E1C6E7F
:1008C80009EC00F02DEF04F007EF00F04A50155C3A
:1008D8004B501658D8B073EF04F075EF04F0A1EF41
:1008E80004F083908382000E186E000E176E88EF56
:1008F80004F0ED0E1724D96E000E1820DA6EDF50C2
:100908004DEC08F0174A182AED0E0C6E000E0D6E0D
:10091800C3EC07F00C50175C0D501858D8A097EF8F
:1009280004F099EF04F07DEF04F015504A5C126E64
:1009380016504B58136E9DEC05F015504A5C165036
:100948004B58D8B0AAEF04F0ACEF04F0D8EF04F09D
:1009580083808392000E1A6E000E196EBFEF04F0AA
:10096800390E1924D96E000E1A20DA6EDF504DECBC
:1009780008F0194A1A2A390E0C6E000E0D6EC3ECD7
:1009880007F00C50195C0D501A58D8A0CEEF04F09F
:10099800D0EF04F0B4EF04F04A50155C126E4B50DF
:1009A8001658136E9DEC05F015C04AF016C04BF0B2
:1009B80012004C50155C4D501658D8B0E6EF04F0B4
:1009C800E8EF04F014EF05F083808382000E186EC0
:1009D800000E176EFBEF04F02D0E1724D96E000ED3
:1009E8001820DA6EDF504DEC08F0174A182A2D0E41
:1009F8000C6E000E0D6EC3EC07F00C50175C0D501A
:100A08001858D8A00AEF05F00CEF05F0F0EF04F045
:100A180015504C5C126E16504D58136E9DEC05F037
:100A280015504C5C16504D58D8B01DEF05F01FEF0F
:100A380005F04BEF05F083908392000E1A6E000EBE
:100A4800196E32EF05F0E00E1924D96E000E1A2047
:100A5800DA6EDF504DEC08F0194A1A2AE00E0C6ED7
:100A6800000E0D6EC3EC07F00C50195C0D501A58AF
:100A7800D8A041EF05F043EF05F027EF05F04C5003
:100A8800155C126E4D501658136E9DEC05F015C08E
:100A98004CF016C04DF01200456D657267656E63C7
:100AA8007920427574746F6E205072657373656433
:100AB8000A005354494C4C20494E20494E54455243
:100AC80052555054494F4E0A00537563636573730A
:100AD80066756C6C792045786563757465640A0081
:100AE800436F6D6D616E6420696E2045786563752E
:100AF80074696F6E0A004C696D69742079205265BB
:100B080061636865640A004C696D697420782052D5
:100B18006561636865640A00476F696E672052699A
:100B28006768742000476F696E6720446F776E0AA4
:100B38002000000E526E000E456E000E446E839427
:100B48008396000E496E010E486EBEEF05F082A432
:100B5800B0EF05F0B2EF05F0B4EF05F032EC08F0B5
:100B68005204D8A4BAEF05F0BCEF05F0BEEF05F0CB
:100B780063EC08F012C00CF013C00DF0000E0F6EFD
:100B8800050E0E6E0DEC08F00C50445C4550800AC2
:100B9800146E0D50800A1458D8A0D5EF05F0D7EF81
:100BA80005F0ABEF05F083848386000E496E000ED6
:100BB800486E12000600D9CF08F0DACF09F01A0EF5
:100BC800076EF80EE82EFED7072EFCD700D0F0A24D
:100BD800F0EF05F0F2EF05F0F5EF05F091EC06F017
:100BE800F092F092000E0B6E000E0A6E07EF06F000
:100BF8007A0E0A24D96E000E0B20DA6EDF5058ECFC
:100C080008F00A4A0B2A7A0E016E000E026EDEEC1C
:100C180007F001500A5C02500B58D8A016EF06F0F6
:100C280018EF06F0FCEF05F009C0DAFF08C0D9FF9D
:100C3800539211004C0EF66E0F0EF76E000EF86E02
:100C480001EE00F010EE39F00900F5CFEEFFE550A7
:100C5800E150FAE1A00EF66E0A0EF76E000EF86E7D
:100C680000EE60F010EE9AF00900F5CFEEFFE550C7
:100C7800E150FAE1820EF66E100EF76E000EF86E75
:100C880000EE2DF010EE17F00900F5CFEEFFE5505D
:100C9800E150FAE100EE44F00F0EEE6AE806FDE1DD
:100CA800539053920001EDEF03F0949C948E1AC078
:100CB80010F01BC011F01CC012F01DC013F0000E84
:100CC8000C6E120E0D6E7A0E0E6E000E0F6E67EC25
:100CD80003F00CC01EF00DC01FF00EC020F00FC0B6
:100CE80021F01EC00CF01FC00DF020C00EF021C076
:100CF8000FF0400E106E000E116E000E126E000EF8
:100D0800136E67EC03F00C04AF6EAC94AC98AB8E2A
:100D1800AC9CAC8AAB9CAB881200000E066E000E31
:100D2800056EA2EF06F0600E0524D96E000E0620AF
:100D3800DA6EDF5058EC08F0054A062A600E016E9C
:100D4800000E026EDEEC07F00150055C02500658FA
:100D5800D8A0B1EF06F0B3EF06F097EF06F0838462
:100D6800838681B4BAEF06F0BCEF06F0B5EF06F063
:100D780048044910D8A4C3EF06F0C5EF06F0C7EF42
:100D880006F0839483961200000E116E000E106E0A
:100D9800D9EF06F0000E1024D96E010E1120DA6E7C
:100DA800DF504DEC08F0104A112A000E0C6E010EAF
:100DB8000D6EC3EC07F00C50105C0D501158D8A004
:100DC800E8EF06F0EAEF06F0CEEF06F08388839AA4
:100DD800839C1200000E116E000E106EFFEF06F0DD
:100DE800A80E1024D96E000E1120DA6EDF504DECDB
:100DF80008F0104A112AA80E0C6E000E0D6EC3ECF6
:100E080007F00C50105C0D501158D8A00EEF07F0E9
:100E180010EF07F0F4EF06F08398839A838C1200A2
:100E2800000E116E000E106E25EF07F01E0E102436
:100E3800D96E010E1120DA6EDF504DEC08F0104A21
:100E4800112A1E0E0C6E010E0D6EC3EC07F00C502D
:100E5800105C0D501158D8A034EF07F036EF07F0AA
:100E68001AEF07F08388839A839C1200000E116E94
:100E7800000E106E4BEF07F0910E1024D96E000E85
:100E88001120DA6EDF504DEC08F0104A112A910E4D
:100E98000C6E000E0D6EC3EC07F00C50105C0D507C
:100EA8001158D8A05AEF07F05CEF07F040EF07F0B1
:100EB8008398838A839C1200000E116E000E106EB8
:100EC80071EF07F0BE0E1024D96E000E1120DA6EF5
:100ED800DF504DEC08F0104A112ABE0E0C6E000EC1
:100EE8000D6EC3EC07F00C50105C0D501158D8A0D3
:100EF80080EF07F082EF07F066EF07F01200000EB0
:100F0800116E000E106E94EF07F0CF0E1024D96EFC
:100F1800000E1120DA6EDF504DEC08F0104A112A4D
:100F2800CF0E0C6E000E0D6EC3EC07F00C50105C6B
:100F38000D501158D8A0A3EF07F0A5EF07F089EFDF
:100F480007F01200204572726F7220313A20496E04
:100F580076616C696420436F6F7264696E61746551
:100F68000A00204572726F7220303A20496E76610D
:0D0F78006C696420436F6D6D616E640A004A
:100F86000CC00EF00DC00FF0CBEF07F00C4A0D2A87
:100F96000CC0D9FF0DC0DAFFDF50D8A4D5EF07F09B
:100FA600D7EF07F0C9EF07F00E500C5C0C6E0F5030
:100FB6000D580D6E120001C003F002C004F0E6EFFA
:100FC60007F0014A022A01C0D9FF02C0DAFFDF504A
:100FD600D8A4F0EF07F0F2EF07F0E4EF07F00350C4
:100FE600015C016E04500258026E1200070EB46EC8
:100FF600000E836E000E8C6E000E956E000E826ED5
:10100600000E8B6E000E816E000E8A6E93688386CC
:10101600838412000C500E02F3CF10F0F4CF11F0BF
:101026000C500F02F35011260D500E02F3501126EC
:1010360010C00CF011C00DF01200F90ECB6E7D0E33
:10104600BE6E7D0EBB6E94929494030ECA6E0C0E09
:10105600BD6E0C0EBA6E000ECC6ECA84120052041F
:10106600D8A438EF08F03AEF08F03CEF08F040EF6C
:1010760008F0444A452A010E526E1200476F696E07
:1010860067204C6566742000476F696E672055704F
:031096000A20002D
:10109A000C6E9EA853EF08F055EF08F04EEF08F0DB
:1010AA000CC0ADFF1200016E9EA85EEF08F060EF63
:1010BA0008F059EF08F001C0ADFF120082B468EFE2
:1010CA0008F06AEF08F06CEF08F0000E526E12009A
:1010DA009EAA72EF08F074EF08F06DEF08F0AE50B8
:1010EA001200D09EF28CF28EF092F188F088F09283
:0210FA001200E2
:020000040020DA
:08000000FFFFFFFFFFFFFFFF00
:020000040030CA
:0E000000000B1F1EFF0181FF0FC00FE00F401D
:00000001FF
