:020000040000FA
:0400000007EF00F016
:100008004C82DFED05F01FEF06F01BC0D9FF1CC0C6
:10001800DAFF430EDE18D8A414EF00F016EF00F054
:100028003FEF01F020EE01F01B50D9261C50DA22D8
:100038002F0EDF6422EF00F024EF00F03BEF01F019
:1000480020EE01F01B50D9261C50DA22340EDF6056
:1000580030EF00F032EF00F03BEF01F020EE02F05D
:100068001B50D9261C50DA222F0EDF643EEF00F019
:1000780040EF00F03BEF01F020EE02F01B50D926D4
:100088001C50DA223A0EDF604CEF00F04EEF00F021
:100098003BEF01F020EE03F01B50D9261C50DA226A
:1000A8002F0EDF645AEF00F05CEF00F03BEF01F039
:1000B80020EE03F01B50D9261C50DA223A0EDF60DE
:1000C80068EF00F06AEF00F03BEF01F020EE04F07B
:1000D8001B50D9261C50DA222C0EDE18D8A477EF34
:1000E80000F079EF00F03BEF01F020EE05F01B5037
:1000F800D9261C50DA222F0EDF6485EF00F087EF37
:1001080000F03BEF01F020EE05F01B50D9261C5003
:10011800DA22340EDF6093EF00F095EF00F03BEF4A
:1001280001F020EE06F01B50D9261C50DA222F0EC3
:10013800DF64A1EF00F0A3EF00F03BEF01F020EE49
:1001480006F01B50D9261C50DA223A0EDF60AFEFBA
:1001580000F0B1EF00F03BEF01F020EE07F01B508C
:10016800D9261C50DA222F0EDF64BDEF00F0BFEF56
:1001780000F03BEF01F020EE07F01B50D9261C5091
:10018800DA223A0EDF60CBEF00F0CDEF00F03BEF64
:1001980001F0EFEC06F020EE01F01B50D9261C50C0
:1001A800DA22DF501D6E1D50640DF3CF1EF0F4CF20
:1001B8001FF020EE02F01B50D9261C50DA22DF5027
:1001C800206E20500A0DF3501E26F4501F2220EEF8
:1001D80003F01B50D9261C50DA22DF50216E215023
:1001E8001E26000E1F22300E1E24496EEB0E1F2005
:1001F8004A6E20EE05F01B50D9261C50DA22DF503B
:100208001D6E1D50640DF3CF1EF0F4CF1FF020EECD
:1002180006F01B50D9261C50DA22DF50206E2050E1
:100228000A0DF3501E26F4501F2220EE07F01B5033
:10023800D9261C50DA22DF50216E21501E26000ECE
:100248001F22300E1E24476EEB0E1F20486E49C039
:1002580015F04AC016F0DDEC04F047C015F048C0B0
:1002680016F06AEC04F015EC07F063EF03F0C9EC44
:1002780006F063EF03F01BC0D9FF1CC0DAFF470E7E
:10028800DE18D8A44AEF01F04CEF01F0E1EF01F0DD
:1002980020EE01F01B50D9261C50DA224F0EDE1832
:1002A800D8A459EF01F05BEF01F03BEF01F020EE2D
:1002B80002F01B50D9261C50DA22540EDE18D8A49E
:1002C80068EF01F06AEF01F03BEF01F020EE03F078
:1002D8001B50D9261C50DA224F0EDE18D8A477EF0F
:1002E80001F079EF01F03BEF01F020EE04F01B5034
:1002F800D9261C50DA22480EDE18D8A486EF01F061
:1003080088EF01F03BEF01F020EE05F01B50D926F5
:100318001C50DA224F0EDE18D8A495EF01F097EFA3
:1003280001F03BEF01F020EE06F01B50D9261C50DF
:10033800DA224D0EDE18D8A4A4EF01F0A6EF01F0E2
:100348003BEF01F020EE07F01B50D9261C50DA22B3
:10035800450EDE18D8A4B3EF01F0B5EF01F03BEF7E
:1003680001F0EFEC06F0838083928396839481A258
:10037800C0EF01F0C2EF01F0BBEF01F08386838488
:100388005EEC07F0839083928396839481A0CFEFED
:1003980001F0D1EF01F0CAEF01F0838683843BECD2
:1003A80007F0000E466E000E456E000E446E000EFD
:1003B800436E15EC07F063EF03F01BC0D9FF1CC0B8
:1003C800DAFF530EDE18D8A4ECEF01F0EEEF01F0DF
:1003D8005EEF02F020EE01F01B50D9261C50DA2205
:1003E800540EDE18D8A4FBEF01F0FDEF01F03BEF4F
:1003F80001F020EE02F01B50D9261C50DA22430EE1
:10040800DE18D8A40AEF02F00CEF02F03BEF01F07F
:1004180020EE03F01B50D9261C50DA22540EDE18A9
:10042800D8A419EF02F01BEF02F03BEF01F020EE29
:1004380004F01B50D9261C50DA224F0EDE18D8A41F
:1004480028EF02F02AEF02F03BEF01F020EE05F072
:100458001B50D9261C50DA22550EDE18D8A437EFC7
:1004680002F039EF02F03BEF01F020EE06F01B50EE
:10047800D9261C50DA22430EDE18D8A446EF02F023
:1004880048EF02F03BEF01F020EE07F01B50D926B1
:100498001C50DA22480EDE18D8A455EF02F057EFA8
:1004A80002F03BEF01F0EFEC06F0838E15EC07F05D
:1004B80063EF03F01BC0D9FF1CC0DAFF4D0EDE1836
:1004C800D8A469EF02F06BEF02F0E8EF02F020EE3B
:1004D80001F01B50D9261C50DA22410EDE18D8A490
:1004E80078EF02F07AEF02F03BEF01F020EE02F035
:1004F8001B50D9261C50DA224B0EDE18D8A487EFE1
:1005080002F089EF02F03BEF01F020EE03F01B5000
:10051800D9261C50DA22450EDE18D8A496EF02F030
:1005280098EF02F03BEF01F020EE04F01B50D926C3
:100538001C50DA22410EDE18D8A4A5EF02F0A7EF6E
:1005480002F03BEF01F020EE05F01B50D9261C50BD
:10055800DA22540EDE18D8A4B4EF02F0B6EF02F097
:100568003BEF01F020EE06F01B50D9261C50DA2292
:10057800410EDE18D8A4C3EF02F0C5EF02F03BEF3E
:1005880001F020EE07F01B50D9261C50DA22500E3D
:10059800DE18D8A4D2EF02F0D4EF02F03BEF01F05E
:1005A800EFEC06F0838E150E1E6E4B0E1D6EBE0E02
:1005B800E82EFED71D2EFCD71E2EFAD700D0839E1C
:1005C80015EC07F063EF03F01BC0D9FF1CC0DAFF7E
:1005D800540EDE18D8A4F3EF02F0F5EF02F03BEF6B
:1005E80001F020EE01F01B50D9261C50DA22410EF2
:1005F800DE18D8A402EF03F004EF03F03BEF01F09C
:1006080020EE02F01B50D9261C50DA224B0EDE18C1
:10061800D8A411EF03F013EF03F03BEF01F020EE45
:1006280003F01B50D9261C50DA22450EDE18D8A438
:1006380020EF03F022EF03F03BEF01F020EE04F08F
:100648001B50D9261C50DA224C0EDE18D8A42FEFE6
:1006580003F031EF03F03BEF01F020EE05F01B5003
:10066800D9261C50DA22490EDE18D8A43EEF03F032
:1006780040EF03F03BEF01F020EE06F01B50D926C7
:100688001C50DA22460EDE18D8A44DEF03F04FEFC7
:1006980003F03BEF01F020EE07F01B50D9261C5069
:1006A800DA22540EDE18D8A45CEF03F05EEF03F0F4
:1006B8003BEF01F0EFEC06F0839E15EC07F012001B
:1006C800000E156E13BE6DEF03F06BEF03F077EFBE
:1006D80003F0131E121E111E106C000E112212229E
:1006E8001322010E156E0FBE7EEF03F07CEF03F0B0
:1006F80088EF03F00F1E0E1E0D1E0C6C000E0D224F
:100708000E220F22010E151A000E166E000E176E1D
:10071800000E186E000E196E1050111012101310E2
:10072800D8B499EF03F09BEF03F0D1EF03F0010E7B
:10073800146EA5EF03F0D890103611361236133622
:10074800142A13AEAAEF03F0ACEF03F09FEF03F007
:10075800D890163617361836193610500C5C1150CA
:100768000D5812500E5813500F58D8A0BEEF03F072
:10077800C0EF03F0C9EF03F010500C5E11500D5A92
:1007880012500E5A13500F5A1680D8901332123244
:1007980011321032142EACEF03F01550D8B4D7EF45
:1007A80003F0D9EF03F0E1EF03F0191E181E171E2E
:1007B800166C000E17221822192216C00CF017C04A
:1007C8000DF018C00EF019C00FF01200720ED36EA3
:1007D800800E1A6E250E1B6E000E1C6E000E1D6E0E
:1007E8005AEC06F0F19EB7EC07F0DEEC07F043ECAC
:1007F80008F0838483868388839A839C838083928A
:100808008396839481A20BEF04F00DEF04F006EFBA
:1008180004F0838683845EEC07F08390839283964A
:10082800839481A01AEF04F01CEF04F015EF04F094
:10083800838683843BEC07F0000E466E000E456EFF
:10084800000E446E000E436E15EC07F0AB88000EE8
:100858000101246F1A0E2425D96EDA6A010EDA22F4
:100868003AEC08F0DF6E0101242B080E24653FEFF7
:1008780004F041EF04F02EEF04F0000E236F000E99
:10088800226F1A0E2225D96E010E2321DA6EDF504F
:100898001AEC08F00101224B232B23BF5DEF04F073
:1008A800235109E1090E225DD8A05DEF04F05FEF46
:1008B80004F045EF04F0AB981A0E1B6E010E1C6E87
:1008C80009EC00F02AEF04F007EF00F04350155C44
:1008D80044501658D8B073EF04F075EF04F0A1EF48
:1008E80004F083908392000E186E000E176E88EF46
:1008F80004F0300E1724D96E000E1820DA6EDF507F
:100908001AEC08F0174A182A300E0C6E000E0D6EFD
:1009180081EC07F00C50175C0D501858D8A097EFD1
:1009280004F099EF04F07DEF04F01550435C126E6B
:1009380016504458136E9EEC05F01550435C165043
:100948004458D8B0AAEF04F0ACEF04F0D8EF04F0A4
:1009580083808382000E1A6E000E196EBFEF04F0BA
:10096800220E1924D96E000E1A20DA6EDF501AEC06
:1009780008F0194A1A2A220E0C6E000E0D6E81EC30
:1009880007F00C50195C0D501A58D8A0CEEF04F09F
:10099800D0EF04F0B4EF04F04350155C126E4450ED
:1009A8001658136E9EEC05F015C043F016C044F0BF
:1009B80012004550155C46501658D8B0E6EF04F0C2
:1009C800E8EF04F014EF05F083808392000E186EB0
:1009D800000E176EFBEF04F08D0E1724D96E000E73
:1009E8001820DA6EDF501AEC08F0174A182A8D0E14
:1009F8000C6E000E0D6E81EC07F00C50175C0D505C
:100A08001858D8A00AEF05F00CEF05F0F0EF04F045
:100A18001550455C126E16504658136E9EEC05F044
:100A28001550455C16504658D8B01DEF05F01FEF1D
:100A380005F04BEF05F083908382000E1A6E000ECE
:100A4800196E32EF05F0C80E1924D96E000E1A205F
:100A5800DA6EDF501AEC08F0194A1A2AC80E0C6E22
:100A6800000E0D6E81EC07F00C50195C0D501A58F1
:100A7800D8A041EF05F043EF05F027EF05F045500A
:100A8800155C126E46501658136E9EEC05F015C094
:100A980045F016C046F012005354494C4C20494EBC
:100AA80020494E54455252555054494F4E0A00431E
:100AB8004F4D414E444F20454A45435554414E44BD
:100AC8004F53450A004841434941204C4120495A67
:100AD800515549455244412000434F4D414E444FE2
:100AE80020494E434F52524543544F0A00434F4DFD
:100AF800414E444F20454A4543555441444F0A000E
:100B08004841434941204C412044455245434841CE
:100B180020004C696D6974207920526561636865AD
:100B2800640A004C696D69742078205265616368B5
:100B380065640A00000E4B6E000E3E6E000E3D6EA0
:100B480083948396000E426E010E416EBFEF05F04E
:100B580082A4B1EF05F0B3EF05F0B5EF05F0F0ECC6
:100B680007F04B04D8A4BBEF05F0BDEF05F0BFEFCD
:100B780005F030EC08F012C00CF013C00DF0000EB8
:100B88000F6E050E0E6ECBEC07F00C503D5C3E5020
:100B9800800A146E0D50800A1458D8A0D6EF05F0BC
:100BA800D8EF05F0ACEF05F083848386000E426E23
:100BB800000E416E12000600D9CF08F0DACF09F016
:100BC8001A0E076EF80EE82EFED7072EFCD700D0B7
:100BD800F0A2F1EF05F0F3EF05F0F6EF05F092EC77
:100BE80006F0F092F092000E0B6E000E0A6E08EFFF
:100BF80006F0600E0A24D96E000E0B20DA6EDF5064
:100C080025EC08F00A4A0B2A600E016E000E026EEF
:100C18009CEC07F001500A5C02500B58D8A017EF63
:100C280006F019EF06F0FDEF05F009C0DAFF08C07D
:100C3800D9FF4C921100190EF66E100EF76E000EC9
:100C4800F86E01EE00F010EE1AF00900F5CFEEFF95
:100C5800E550E150FAE1A00EF66E0A0EF76E000EAE
:100C6800F86E00EE60F010EE9CF00900F5CFEEFF94
:100C7800E550E150FAE1FE0EF66E0F0EF76E000E2B
:100C8800F86E00EE22F010EE1BF00900F5CFEEFF33
:100C9800E550E150FAE100EE3DF00F0EEE6AE8068D
:100CA800FDE14C904C920001EAEF03F0949C948E85
:100CB8001AC010F01BC011F01CC012F01DC013F0B8
:100CC800000E0C6E120E0D6E7A0E0E6E000E0F6E6A
:100CD80064EC03F00CC01EF00DC01FF00EC020F035
:100CE8000FC021F01EC00CF01FC00DF020C00EF088
:100CF80021C00FF0400E106E000E116E000E126E25
:100D0800000E136E64EC03F00C04AF6EAC94AC9858
:100D1800AB8EAC9CAC8AAB9CAB881200000E066E06
:100D2800000E056EA3EF06F0000E0524D96E010E25
:100D38000620DA6EDF5025EC08F0054A062A000E78
:100D4800016E010E026E9CEC07F00150055C02502A
:100D58000658D8A0B2EF06F0B4EF06F098EF06F008
:100D68008384838681B4BBEF06F0BDEF06F0B6EF4F
:100D780006F041044210D8A4C4EF06F0C6EF06F00E
:100D8800C8EF06F0839483961200000E116E000ED1
:100D9800106EDAEF06F0A10E1024D96E000E1120A5
:100DA800DA6EDF501AEC08F0104A112AA10E0C6E08
:100DB800000E0D6E81EC07F00C50105C0D501158B0
:100DC800D8A0E9EF06F0EBEF06F0CFEF06F0838846
:100DD800839A839C1200000E116E000E106E00EFB5
:100DE80007F0770E1024D96E000E1120DA6EDF504E
:100DF8001AEC08F0104A112A770E0C6E000E0D6ED0
:100E080081EC07F00C50105C0D501158D8A00FEF72
:100E180007F011EF07F0F5EF06F08398839A838CBB
:100E28001200000E116E000E106E26EF07F0B50EC0
:100E38001024D96E000E1120DA6EDF501AEC08F07B
:100E4800104A112AB50E0C6E000E0D6E81EC07F0DB
:100E58000C50105C0D501158D8A035EF07F037EF43
:100E680007F01BEF07F08398838A839C1200000E1B
:100E7800116E000E106E4CEF07F0DA0E1024D96ECA
:100E8800000E1120DA6EDF501AEC08F0104A112A11
:100E9800DA0E0C6E000E0D6E81EC07F00C50105C33
:100EA8000D501158D8A05BEF07F05DEF07F041EF48
:100EB80007F01200000E116E000E106E6FEF07F0B3
:100EC800EB0E1024D96E000E1120DA6EDF501AECEA
:100ED80008F0104A112AEB0E0C6E000E0D6E81EC14
:100EE80007F00C50105C0D501158D8A07EEF07F099
:100EF80080EF07F064EF07F012000CC00EF00DC091
:100F08000FF089EF07F00C4A0D2A0CC0D9FF0DC06D
:100F1800DAFFDF50D8A493EF07F095EF07F087EFDB
:100F280007F00E500C5C0C6E0F500D580D6E120031
:100F380001C003F002C004F0A4EF07F0014A022A3E
:100F480001C0D9FF02C0DAFFDF50D8A4AEEF07F026
:100F5800B0EF07F0A2EF07F00350015C016E0450F8
:100F68000258026E1200070EB46E000E836E000E59
:100F78008C6E000E956E000E826E000E8B6E000E4B
:100F8800816E000E8A6E93688386838412000C50EB
:100F98000E02F3CF10F0F4CF11F00C500F02F35003
:100FA80011260D500E02F350112610C00CF011C07E
:100FB8000DF01200F90ECB6E7D0EBE6E7D0EBB6E6F
:100FC80094929494030ECA6E0C0EBD6E0C0EBA6EFB
:100FD800000ECC6ECA8412004B04D8A4F6EF07F0BA
:100FE800F8EF07F0FAEF07F0FEEF07F03D4A3E2A68
:100FF800010E4B6E1200484143494120415252496B
:10100800424120004841434941204142414A4F2042
:1010180000456D657267656E637920427574746FFB
:0B1028006E20507265737365640A004F
:101034000C6E9EA820EF08F022EF08F01BEF08F0DA
:101044000CC0ADFF1200016E9EA82BEF08F02DEF2F
:1010540008F026EF08F001C0ADFF120082B435EFAE
:1010640008F037EF08F039EF08F0000E4B6E12006D
:101074009EAA3FEF08F041EF08F03AEF08F0AE50B7
:101084001200D09EF28CF28EF092F188F088F092E9
:02109400120048
:020000040020DA
:08000000FFFFFFFFFFFFFFFF00
:020000040030CA
:0E000000000B1F1EFF0181FF0FC00FE00F401D
:00000001FF
