:020000040000FA
:0400000007EF00F016
:100008004A8279ED05F0B9EF05F01BC0D9FF1CC095
:10001800DAFF430EDE18D8A414EF00F016EF00F054
:100028000FEF01F020EE01F01B50D9261C50DA2208
:100038002F0EDF6422EF00F024EF00F00BEF01F049
:1000480020EE01F01B50D9261C50DA22340EDF6056
:1000580030EF00F032EF00F00BEF01F020EE02F08D
:100068001B50D9261C50DA222F0EDF643EEF00F019
:1000780040EF00F00BEF01F020EE02F01B50D92604
:100088001C50DA223A0EDF604CEF00F04EEF00F021
:100098000BEF01F020EE03F01B50D9261C50DA229A
:1000A8002F0EDF645AEF00F05CEF00F00BEF01F069
:1000B80020EE03F01B50D9261C50DA223A0EDF60DE
:1000C80068EF00F06AEF00F00BEF01F020EE04F0AB
:1000D8001B50D9261C50DA222C0EDE18D8A477EF34
:1000E80000F079EF00F00BEF01F020EE05F01B5067
:1000F800D9261C50DA222F0EDF6485EF00F087EF37
:1001080000F00BEF01F020EE05F01B50D9261C5033
:10011800DA22340EDF6093EF00F095EF00F00BEF7A
:1001280001F020EE06F01B50D9261C50DA222F0EC3
:10013800DF64A1EF00F0A3EF00F00BEF01F020EE79
:1001480006F01B50D9261C50DA223A0EDF60AFEFBA
:1001580000F0B1EF00F00BEF01F020EE07F01B50BC
:10016800D9261C50DA222F0EDF64BDEF00F0BFEF56
:1001780000F00BEF01F020EE07F01B50D9261C50C1
:10018800DA223A0EDF60CBEF00F0CDEF00F00BEF94
:1001980001F0CCEC06F020EE05F01B50D9261C50DF
:1001A800DA22DF501D6E1D50640DF3CF1EF0F4CF20
:1001B8001FF020EE06F01B50D9261C50DA22DF5023
:1001C800206E20500A0DF3501E26F4501F2220EEF8
:1001D80007F01B50D9261C50DA22DF50216E21501F
:1001E8001E26000E1F22300E1E24456EEB0E1F2009
:1001F800466E000E166E000E156E27EC04F045C014
:1002080015F046C016F0B4EC03F02DEF03F0A9EC9E
:1002180006F02DEF03F01BC0D9FF1CC0DAFF470E14
:10022800DE18D8A41AEF01F01CEF01F0B1EF01F0CD
:1002380020EE01F01B50D9261C50DA224F0EDE1892
:10024800D8A429EF01F02BEF01F00BEF01F020EE1D
:1002580002F01B50D9261C50DA22540EDE18D8A4FE
:1002680038EF01F03AEF01F00BEF01F020EE03F068
:100278001B50D9261C50DA224F0EDE18D8A447EF9F
:1002880001F049EF01F00BEF01F020EE04F01B50F4
:10029800D9261C50DA22480EDE18D8A456EF01F0F1
:1002A80058EF01F00BEF01F020EE05F01B50D926B6
:1002B8001C50DA224F0EDE18D8A465EF01F067EF64
:1002C80001F00BEF01F020EE06F01B50D9261C5070
:1002D800DA224D0EDE18D8A474EF01F076EF01F0A3
:1002E8000BEF01F020EE07F01B50D9261C50DA2244
:1002F800450EDE18D8A483EF01F085EF01F00BEF6F
:1003080001F0CCEC06F0839083928396839481A0CD
:1003180090EF01F092EF01F08BEF01F08386838478
:1003280086EC06F0839083828396839481A29FEF64
:1003380001F0A1EF01F09AEF01F08386838463EC6A
:1003480006F0000E446E000E436E000E426E000E64
:10035800416EEFEC06F02DEF03F01BC0D9FF1CC077
:10036800DAFF530EDE18D8A4BCEF01F0BEEF01F09F
:100378002CEF02F020EE01F01B50D9261C50DA2297
:10038800540EDE18D8A4CBEF01F0CDEF01F00BEF3F
:1003980001F020EE02F01B50D9261C50DA22430E41
:1003A800DE18D8A4DAEF01F0DCEF01F00BEF01F072
:1003B80020EE03F01B50D9261C50DA22540EDE180A
:1003C800D8A4E9EF01F0EBEF01F00BEF01F020EE1C
:1003D80004F01B50D9261C50DA224F0EDE18D8A480
:1003E800F8EF01F0FAEF01F00BEF01F020EE05F065
:1003F8001B50D9261C50DA22550EDE18D8A407EF58
:1004080002F009EF02F00BEF01F020EE06F01B50AE
:10041800D9261C50DA22430EDE18D8A416EF02F0B3
:1004280018EF02F00BEF01F020EE07F01B50D92671
:100438001C50DA22480EDE18D8A425EF02F027EF68
:1004480002F00BEF01F0CCEC06F0838E2DEF03F0F9
:100458001BC0D9FF1CC0DAFF4D0EDE18D8A437EF39
:1004680002F039EF02F0B4EF02F020EE01F01B5079
:10047800D9261C50DA22410EDE18D8A446EF02F025
:1004880048EF02F00BEF01F020EE02F01B50D926E6
:100498001C50DA224B0EDE18D8A455EF02F057EFA5
:1004A80002F00BEF01F020EE03F01B50D9261C5090
:1004B800DA22450EDE18D8A464EF02F066EF02F0E7
:1004C8000BEF01F020EE04F01B50D9261C50DA2265
:1004D800410EDE18D8A473EF02F075EF02F00BEFAF
:1004E80001F020EE05F01B50D9261C50DA22540EDC
:1004F800DE18D8A482EF02F084EF02F00BEF01F0CF
:1005080020EE06F01B50D9261C50DA22410EDE18C8
:10051800D8A491EF02F093EF02F00BEF01F020EE78
:1005280007F01B50D9261C50DA22500EDE18D8A42A
:10053800A0EF02F0A2EF02F00BEF01F0CCEC06F016
:10054800838E150E1E6E4B0E1D6EBE0EE82EFED748
:100558001D2EFCD71E2EFAD700D0839E2DEF03F058
:100568001BC0D9FF1CC0DAFF540EDE18D8A4BFEF99
:1005780002F0C1EF02F00BEF01F020EE01F01B508A
:10058800D9261C50DA22410EDE18D8A4CEEF02F08C
:10059800D0EF02F00BEF01F020EE02F01B50D9264D
:1005A8001C50DA224B0EDE18D8A4DDEF02F0DFEF84
:1005B80002F00BEF01F020EE03F01B50D9261C507F
:1005C800DA22450EDE18D8A4ECEF02F0EEEF02F0C6
:1005D8000BEF01F020EE04F01B50D9261C50DA2254
:1005E8004C0EDE18D8A4FBEF02F0FDEF02F00BEF83
:1005F80001F020EE05F01B50D9261C50DA22490ED6
:10060800DE18D8A40AEF03F00CEF03F00BEF01F0AB
:1006180020EE06F01B50D9261C50DA22460EDE18B2
:10062800D8A419EF03F01BEF03F00BEF01F020EE55
:1006380007F01B50D9261C50DA22540EDE18D8A415
:1006480028EF03F02AEF03F00BEF01F0CCEC06F0F3
:10065800839E1200000E156E13BE37EF03F035EFC0
:1006680003F041EF03F0131E121E111E106C000E52
:10067800112212221322010E156E0FBE48EF03F04D
:1006880046EF03F052EF03F00F1E0E1E0D1E0C6C0A
:10069800000E0D220E220F22010E151A000E166EE4
:1006A800000E176E000E186E000E196E1050111005
:1006B80012101310D8B463EF03F065EF03F09BEF4B
:1006C80003F0010E146E6FEF03F0D8901036113658
:1006D80012361336142A13AE74EF03F076EF03F0D4
:1006E80069EF03F0D89016361736183619361050B9
:1006F8000C5C11500D5812500E5813500F58D8A0BA
:1007080088EF03F08AEF03F093EF03F010500C5ECC
:1007180011500D5A12500E5A13500F5A1680D89075
:100728001332123211321032142E76EF03F01550B4
:10073800D8B4A1EF03F0A3EF03F0ABEF03F0191E59
:10074800181E171E166C000E17221822192216C022
:100758000CF017C00DF018C00EF019C00FF0120001
:100768004150155C42501658D8B0BDEF03F0BFEFAA
:1007780003F0EBEF03F083908382000E186E000EF7
:10078800176ED2EF03F02F0E1724D96E000E182023
:10079800DA6EDF50A7EC07F0174A182A2F0E0C6EF6
:1007A800000E0D6E12EC07F00C50175C0D50185827
:1007B800D8A0E1EF03F0E3EF03F0C7EF03F0155023
:1007C800415C126E16504258136E38EC05F0155005
:1007D800415C16504258D8B0F4EF03F0F6EF03F03E
:1007E80022EF04F083808392000E1A6E000E196EB9
:1007F80009EF04F0220E1924D96E000E1A20DA6EC1
:10080800DF50A7EC07F0194A1A2A220E0C6E000EC8
:100818000D6E12EC07F00C50195C0D501A58D8A048
:1008280018EF04F01AEF04F0FEEF03F04150155CE6
:10083800126E42501658136E38EC05F015C041F090
:1008480016C042F012004350155C44501658D8B0F8
:1008580030EF04F032EF04F05EEF04F0838083821F
:10086800000E186E000E176E45EF04F08C0E17245C
:10087800D96E000E1820DA6EDF50A7EC07F0174A81
:10088800182A8C0E0C6E000E0D6E12EC07F00C5030
:10089800175C0D501858D8A054EF04F056EF04F028
:1008A8003AEF04F01550435C126E16504458136E1C
:1008B80038EC05F01550435C16504458D8B067EF33
:1008C80004F069EF04F095EF04F083908392000E32
:1008D8001A6E000E196E7CEF04F0C40E1924D96E3E
:1008E800000E1A20DA6EDF50A7EC07F0194A1A2A10
:1008F800C40E0C6E000E0D6E12EC07F00C50195C55
:100908000D501A58D8A08BEF04F08DEF04F071EF5A
:1009180004F04350155C126E44501658136E38ECB0
:1009280005F015C043F016C044F01200720ED36EE5
:10093800800E1A6E250E1B6E000E1C6E000E1D6EAC
:10094800F4EC05F0F19E6DEC07F05BEC07F0D0ECF1
:1009580007F083848386000E0001FF6FF50EFF25E4
:10096800D96EDA6A000EDA22C7EC07F0DF6E0001F2
:10097800FF2B080EFF65C3EF04F0C5EF04F0B2EFDC
:1009880004F0000EFE6F000EFD6FF50EFD25D96E0A
:10099800000EFE21DA6EDF50A7EC07F00001FD4BD8
:1009A800FE2BFEBFE1EF04F0FE5109E1090EFD5DEB
:1009B800D8A0E1EF04F0E3EF04F0C9EF04F0F50E7E
:1009C8001B6E000E1C6E09EC00F0AFEF04F007EF91
:1009D80000F05354494C4C20494E20494E5445523E
:1009E80052555054494F4E0A00434F4D414E444FC3
:1009F80020454A45435554414E444F5345004841CC
:100A0800434941204C4120495A5155494552444196
:100A180000434F4D414E444F20494E434F5252459B
:100A280043544F00434F4D414E444F20454A4543A0
:100A3800555441444F004841434941204C412044CA
:100A4800455245434841004C696D697420792052EC
:100A5800656163686564004C696D6974207820522B
:070A6800656163686564002D
:100A7000000E496E000E3C6E000E3B6E8394839612
:100A8000000E406E010E3F6E59EF05F082A44BEF51
:100A900005F04DEF05F04FEF05F07FEC07F049044E
:100AA000D8A455EF05F057EF05F059EF05F0BDEC70
:100AB00007F012C00CF013C00DF0000E0F6E050E03
:100AC0000E6E48EC07F00C503B5C3C50800A146EF4
:100AD0000D50800A1458D8A070EF05F072EF05F0A1
:100AE00046EF05F083848386000E406E000E3F6E55
:100AF00012000600D9CF08F0DACF09F01A0E076EFF
:100B0000F80EE82EFED7072EFCD700D0F0A28BEF10
:100B100005F08DEF05F090EF05F02CEC06F0F0926B
:100B2000F092000E0B6E000E0A6EA2EF05F0600E42
:100B30000A24D96E000E0B20DA6EDF50B2EC07F0FB
:100B40000A4A0B2A600E016E000E026E2DEC07F0B1
:100B500001500A5C02500B58D8A0B1EF05F0B3EF7A
:100B600005F097EF05F009C0DAFF08C0D9FF4A92F7
:100B70001100350EF66E0F0EF76E000EF86E01EED8
:100B800000F010EE19F00900F5CFEEFFE550E1504E
:100B9000FAE1DA0EF66E090EF76E000EF86E00EE50
:100BA00060F010EE95F00900F5CFEEFFE550E15052
:100BB000FAE11C0EF66E0F0EF76E000EF86E00EEE8
:100BC00022F010EE19F00900F5CFEEFFE550E150EC
:100BD000FAE100EE3BF00F0EEE6AE806FDE14A9006
:100BE0004A9200019AEF04F0949C948E1AC010F07F
:100BF0001BC011F01CC012F01DC013F0000E0C6ED3
:100C0000120E0D6E7A0E0E6E000E0F6E2EEC03F0AD
:100C10000CC01EF00DC01FF00EC020F00FC021F060
:100C20001EC00CF01FC00DF020C00EF021C00FF050
:100C3000400E106E000E116E000E126E000E136E3E
:100C40002EEC03F00C04AF6EAC94AC98AB8EAC9C65
:100C5000AC8AAB9CAB881200000E066E000E056ECF
:100C60003DEF06F0000E0524D96E010E0620DA6E67
:100C7000DF50B2EC07F0054A062A000E016E010EA5
:100C8000026E2DEC07F00150055C02500658D8A00A
:100C90004CEF06F04EEF06F032EF06F083848386C9
:100CA00081B455EF06F057EF06F050EF06F03F0421
:100CB0004010D8A45EEF06F060EF06F062EF06F099
:100CC000839483961200000E116E000E106E74EF66
:100CD00006F0D50E1024D96E000E1120DA6EDF500A
:100CE000A7EC07F0104A112AD50E0C6E000E0D6EFF
:100CF00012EC07F00C50105C0D501158D8A083EF87
:100D000006F085EF06F069EF06F01200000E116E96
:100D1000000E106E97EF06F0E50E1024D96E000E4F
:100D20001120DA6EDF50A7EC07F0104A112AE50E09
:100D30000C6E000E0D6E12EC07F00C50105C0D5096
:100D40001158D8A0A6EF06F0A8EF06F08CEF06F039
:100D50001200000E116E000E106EBAEF06F09F0E1C
:100D60001024D96E000E1120DA6EDF50A7EC07F0C8
:100D7000104A112A9F0E0C6E000E0D6E12EC07F039
:100D80000C50105C0D501158D8A0C9EF06F0CBEFF5
:100D900006F0AFEF06F01200000E116E000E106E9E
:100DA000DDEF06F0770E1024D96E000E1120DA6EFA
:100DB000DF50A7EC07F0104A112A770E0C6E000ED8
:100DC0000D6E12EC07F00C50105C0D501158D8A0AD
:100DD000ECEF06F0EEEF06F0D2EF06F01200000E98
:100DE000116E000E106E00EF07F0B20E1024D96ED7
:100DF000000E1120DA6EDF50A7EC07F0104A112A1E
:100E0000B20E0C6E000E0D6E12EC07F00C50105C62
:100E10000D501158D8A00FEF07F011EF07F0F5EFC4
:100E200006F012000CC00EF00DC00FF01AEF07F024
:100E30000C4A0D2A0CC0D9FF0DC0DAFFDF50D8A430
:100E400024EF07F026EF07F018EF07F00E500C5CC8
:100E50000C6E0F500D580D6E120001C003F002C051
:100E600004F035EF07F0014A022A01C0D9FF02C0A1
:100E7000DAFFDF50D8A43FEF07F041EF07F033EF80
:100E800007F00350015C016E04500258026E12001C
:100E90000C500E02F3CF10F0F4CF11F00C500F02F3
:100EA000F35011260D500E02F350112610C00CF015
:100EB00011C00DF01200F90ECB6E7D0EBE6E7D0ED0
:100EC000BB6E94929494030ECA6E0C0EBD6E0C0E03
:100ED000BA6E000ECC6ECA841200070EB46E000EFD
:100EE000836E000E8C6E000E956E000E826E000EEC
:100EF0008B6E000E816E000E8A6E9368120049049C
:100F0000D8A485EF07F087EF07F089EF07F08DEFA2
:100F100007F03B4A3C2A010E496E12004841434902
:100F200041204152524942410048414349412041F8
:100F300042414A4F00456D657267656E6379204294
:100F40007574746F6E2050726573736564000C6EF7
:100F50009EA8ADEF07F0AFEF07F0A8EF07F00CC0C9
:100F6000ADFF1200016E9EA8B8EF07F0BAEF07F0D0
:100F7000B3EF07F001C0ADFF120082B4C2EF07F07B
:100F8000C4EF07F0C6EF07F0000E496E12009EAAEC
:100F9000CCEF07F0CEEF07F0C7EF07F0AE5012002E
:100FA000D09EF28CF28EF092F188F088F0921200CE
:020000040020DA
:08000000FFFFFFFFFFFFFFFF00
:020000040030CA
:0E000000000B1F1EFF0181FF0FC00FE00F401D
:00000001FF
