:020000040000FA
:0400000007EF00F016
:100008004A82A9ED05F0E9EF05F01BC0D9FF1CC035
:10001800DAFF430EDE18D8A414EF00F016EF00F054
:100028003DEF01F020EE01F01B50D9261C50DA22DA
:100038002F0EDF6422EF00F024EF00F039EF01F01B
:1000480020EE01F01B50D9261C50DA22340EDF6056
:1000580030EF00F032EF00F039EF01F020EE02F05F
:100068001B50D9261C50DA222F0EDF643EEF00F019
:1000780040EF00F039EF01F020EE02F01B50D926D6
:100088001C50DA223A0EDF604CEF00F04EEF00F021
:1000980039EF01F020EE03F01B50D9261C50DA226C
:1000A8002F0EDF645AEF00F05CEF00F039EF01F03B
:1000B80020EE03F01B50D9261C50DA223A0EDF60DE
:1000C80068EF00F06AEF00F039EF01F020EE04F07D
:1000D8001B50D9261C50DA222C0EDE18D8A477EF34
:1000E80000F079EF00F039EF01F020EE05F01B5039
:1000F800D9261C50DA222F0EDF6485EF00F087EF37
:1001080000F039EF01F020EE05F01B50D9261C5005
:10011800DA22340EDF6093EF00F095EF00F039EF4C
:1001280001F020EE06F01B50D9261C50DA222F0EC3
:10013800DF64A1EF00F0A3EF00F039EF01F020EE4B
:1001480006F01B50D9261C50DA223A0EDF60AFEFBA
:1001580000F0B1EF00F039EF01F020EE07F01B508E
:10016800D9261C50DA222F0EDF64BDEF00F0BFEF56
:1001780000F039EF01F020EE07F01B50D9261C5093
:10018800DA223A0EDF60CBEF00F0CDEF00F039EF66
:1001980001F0FCEC06F020EE01F01B50D9261C50B3
:1001A800DA22DF501D6E1D50640DF3CF1EF0F4CF20
:1001B8001FF020EE02F01B50D9261C50DA22DF5027
:1001C800206E20500A0DF3501E26F4501F2220EEF8
:1001D80003F01B50D9261C50DA22DF50216E215023
:1001E8001E26000E1F22300E1E24476EEB0E1F2007
:1001F800486E20EE05F01B50D9261C50DA22DF503D
:100208001D6E1D50640DF3CF1EF0F4CF1FF020EECD
:1002180006F01B50D9261C50DA22DF50206E2050E1
:100228000A0DF3501E26F4501F2220EE07F01B5033
:10023800D9261C50DA22DF50216E21501E26000ECE
:100248001F22300E1E24456EEB0E1F20466E47C03F
:1002580015F048C016F055EC04F045C015F046C03E
:1002680016F0E2EC03F05BEF03F0D9EC06F05BEF7D
:1002780003F01BC0D9FF1CC0DAFF470EDE18D8A454
:1002880048EF01F04AEF01F0DFEF01F020EE01F056
:100298001B50D9261C50DA224F0EDE18D8A457EF6F
:1002A80001F059EF01F039EF01F020EE02F01B5098
:1002B800D9261C50DA22540EDE18D8A466EF01F0B5
:1002C80068EF01F039EF01F020EE03F01B50D9265A
:1002D8001C50DA224F0EDE18D8A475EF01F077EF24
:1002E80001F039EF01F020EE04F01B50D9261C5024
:1002F800DA22480EDE18D8A484EF01F086EF01F068
:1003080039EF01F020EE05F01B50D9261C50DA22F7
:100318004F0EDE18D8A493EF01F095EF01F039EFF6
:1003280001F020EE06F01B50D9261C50DA224D0EA3
:10033800DE18D8A4A2EF01F0A4EF01F039EF01F024
:1003480020EE07F01B50D9261C50DA22450EDE1885
:10035800D8A4B1EF01F0B3EF01F039EF01F0FCECF4
:1003680006F0839083928396839481A0BEEF01F078
:10037800C0EF01F0B9EF01F083868384B6EC06F094
:10038800839083828396839481A2CDEF01F0CFEF8F
:1003980001F0C8EF01F08386838493EC06F0000E29
:1003A800446E000E436E000E426E000E416E1FEC4E
:1003B80007F05BEF03F01BC0D9FF1CC0DAFF530E38
:1003C800DE18D8A4EAEF01F0ECEF01F05AEF02F0E2
:1003D80020EE01F01B50D9261C50DA22540EDE18EC
:1003E800D8A4F9EF01F0FBEF01F039EF01F020EEAE
:1003F80002F01B50D9261C50DA22430EDE18D8A46E
:1004080008EF02F00AEF02F039EF01F020EE03F0F6
:100418001B50D9261C50DA22540EDE18D8A417EF28
:1004280002F019EF02F039EF01F020EE04F01B5052
:10043800D9261C50DA224F0EDE18D8A426EF02F077
:1004480028EF02F039EF01F020EE05F01B50D92615
:100458001C50DA22550EDE18D8A435EF02F037EF1B
:1004680002F039EF01F020EE06F01B50D9261C509F
:10047800DA22430EDE18D8A444EF02F046EF02F069
:1004880039EF01F020EE07F01B50D9261C50DA2274
:10049800480EDE18D8A453EF02F055EF02F039EFFA
:1004A80001F0FCEC06F0838E5BEF03F01BC0D9FF74
:1004B8001CC0DAFF4D0EDE18D8A465EF02F067EF16
:1004C80002F0E2EF02F020EE01F01B50D9261C509A
:1004D800DA22410EDE18D8A474EF02F076EF02F0AB
:1004E80039EF01F020EE02F01B50D9261C50DA2219
:1004F8004B0EDE18D8A483EF02F085EF02F039EF37
:1005080001F020EE03F01B50D9261C50DA22450ECC
:10051800DE18D8A492EF02F094EF02F039EF01F060
:1005280020EE04F01B50D9261C50DA22410EDE18AA
:10053800D8A4A1EF02F0A3EF02F039EF01F020EE0A
:1005480005F01B50D9261C50DA22540EDE18D8A408
:10055800B0EF02F0B2EF02F039EF01F020EE06F052
:100568001B50D9261C50DA22410EDE18D8A4BFEF42
:1005780002F0C1EF02F039EF01F020EE07F01B5056
:10058800D9261C50DA22500EDE18D8A4CEEF02F07D
:10059800D0EF02F039EF01F0FCEC06F0838E150E77
:1005A8001E6E4B0E1D6EBE0EE82EFED71D2EFCD7FE
:1005B8001E2EFAD700D0839E5BEF03F01BC0D9FF35
:1005C8001CC0DAFF540EDE18D8A4EDEF02F0EFEFEE
:1005D80002F039EF01F020EE01F01B50D9261C5033
:1005E800DA22410EDE18D8A4FCEF02F0FEEF02F08A
:1005F80039EF01F020EE02F01B50D9261C50DA2208
:100608004B0EDE18D8A40BEF03F00DEF03F039EF13
:1006180001F020EE03F01B50D9261C50DA22450EBB
:10062800DE18D8A41AEF03F01CEF03F039EF01F03D
:1006380020EE04F01B50D9261C50DA224C0EDE188E
:10064800D8A429EF03F02BEF03F039EF01F020EEE7
:1006580005F01B50D9261C50DA22490EDE18D8A402
:1006680038EF03F03AEF03F039EF01F020EE06F02F
:100678001B50D9261C50DA22460EDE18D8A447EFA4
:1006880003F049EF03F039EF01F020EE07F01B50BB
:10069800D9261C50DA22540EDE18D8A456EF03F0DF
:1006A80058EF03F039EF01F0FCEC06F0839E1200DE
:1006B800000E156E13BE65EF03F063EF03F06FEFE6
:1006C80003F0131E121E111E106C000E11221222AE
:1006D8001322010E156E0FBE76EF03F074EF03F0D0
:1006E80080EF03F00F1E0E1E0D1E0C6C000E0D2267
:1006F8000E220F22010E151A000E166E000E176E2E
:10070800000E186E000E196E1050111012101310F2
:10071800D8B491EF03F093EF03F0C9EF03F0010EA3
:10072800146E9DEF03F0D89010361136123613363A
:10073800142A13AEA2EF03F0A4EF03F097EF03F02F
:10074800D890163617361836193610500C5C1150DA
:100758000D5812500E5813500F58D8A0B6EF03F08A
:10076800B8EF03F0C1EF03F010500C5E11500D5AB2
:1007780012500E5A13500F5A1680D8901332123254
:1007880011321032142EA4EF03F01550D8B4CFEF65
:1007980003F0D1EF03F0D9EF03F0191E181E171E4E
:1007A800166C000E17221822192216C00CF017C05A
:1007B8000DF018C00EF019C00FF012004150155C72
:1007C80042501658D8B0EBEF03F0EDEF03F019EFF5
:1007D80004F083908382000E186E000E176E00EFEF
:1007E80004F02F0E1724D96E000E1820DA6EDF5091
:1007F800D9EC07F0174A182A2F0E0C6E000E0D6E52
:1008080042EC07F00C50175C0D501858D8A00FEFA9
:1008180004F011EF04F0F5EF03F01550415C126E8F
:1008280016504258136E68EC05F01550415C16508E
:100838004258D8B022EF04F024EF04F050EF04F04F
:1008480083808392000E1A6E000E196E37EF04F043
:10085800220E1924D96E000E1A20DA6EDF50D9EC58
:1008680007F0194A1A2A220E0C6E000E0D6E42EC81
:1008780007F00C50195C0D501A58D8A046EF04F038
:1008880048EF04F02CEF04F04150155C126E425012
:100898001658136E68EC05F015C041F016C042F00A
:1008A80012004350155C44501658D8B05EEF04F05F
:1008B80060EF04F08CEF04F083808382000E186EE2
:1008C800000E176E73EF04F08C0E1724D96E000E0D
:1008D8001820DA6EDF50D9EC07F0174A182A8C0E68
:1008E8000C6E000E0D6E42EC07F00C50175C0D50AC
:1008F8001858D8A082EF04F084EF04F068EF04F0F1
:100908001550435C126E16504458136E68EC05F08F
:100918001550435C16504458D8B095EF04F097EF43
:1009280004F0C3EF04F083908392000E1A6E000E59
:10093800196EAAEF04F0C40E1924D96E000E1A20FD
:10094800DA6EDF50D9EC07F0194A1A2AC40E0C6E79
:10095800000E0D6E42EC07F00C50195C0D501A5841
:10096800D8A0B9EF04F0BBEF04F09FEF04F04350B8
:10097800155C126E44501658136E68EC05F015C0DD
:1009880043F016C044F01200720ED36E800E1A6E39
:10099800250E1B6E000E1C6E000E1D6E24EC06F05C
:1009A800F19E78EC07F09FEC07F002EC08F08384E6
:1009B8008386AB88000E0001FF6FF50EFF25D96E08
:1009C800DA6A000EDA22F9EC07F0DF6E0001FF2B7D
:1009D800080EFF65F2EF04F0F4EF04F0E1EF04F025
:1009E800000EFE6F000EFD6FF50EFD25D96E000E90
:1009F800FE21DA6EDF50D9EC07F00001FD4BFE2B2B
:100A0800FEBF10EF05F0FE5109E1090EFD5DD8A00B
:100A180010EF05F012EF05F0F8EF04F0AB98F50EC3
:100A28001B6E000E1C6E09EC00F0DDEF04F007EF02
:100A380000F05354494C4C20494E20494E544552DD
:100A480052555054494F4E0A00434F4D414E444F62
:100A580020454A45435554414E444F53450048416B
:100A6800434941204C4120495A5155494552444136
:100A780000434F4D414E444F20494E434F5252453B
:100A880043544F00434F4D414E444F20454A454340
:100A9800555441444F004841434941204C4120446A
:100AA800455245434841004C696D6974207920528C
:100AB800656163686564004C696D697420782052CB
:070AC80065616368656400CD
:100AD000000E496E000E3C6E000E3B6E83948396B2
:100AE000000E406E010E3F6E89EF05F082A47BEF91
:100AF00005F07DEF05F07FEF05F0B1EC07F049045C
:100B0000D8A485EF05F087EF05F089EF05F0EFEC4D
:100B100007F012C00CF013C00DF0000E0F6E050EA2
:100B20000E6E8CEC07F00C503B5C3C50800A146E4F
:100B30000D50800A1458D8A0A0EF05F0A2EF05F0E0
:100B400076EF05F083848386000E406E000E3F6EC4
:100B500012000600D9CF08F0DACF09F01A0E076E9E
:100B6000F80EE82EFED7072EFCD700D0F0A2BBEF80
:100B700005F0BDEF05F0C0EF05F05CEC06F0F0927B
:100B8000F092000E0B6E000E0A6ED2EF05F0600EB2
:100B90000A24D96E000E0B20DA6EDF50E4EC07F069
:100BA0000A4A0B2A600E016E000E026E5DEC07F021
:100BB00001500A5C02500B58D8A0E1EF05F0E3EFBA
:100BC00005F0C7EF05F009C0DAFF08C0D9FF4A9267
:100BD0001100990EF66E0F0EF76E000EF86E01EE14
:100BE00000F010EE19F00900F5CFEEFFE550E150EE
:100BF000FAE13A0EF66E0A0EF76E000EF86E00EE8F
:100C000060F010EE95F00900F5CFEEFFE550E150F1
:100C1000FAE1800EF66E0F0EF76E000EF86E00EE23
:100C200022F010EE19F00900F5CFEEFFE550E1508B
:100C3000FAE100EE3BF00F0EEE6AE806FDE14A90A5
:100C40004A920001C8EF04F0949C948E1AC010F0F0
:100C50001BC011F01CC012F01DC013F0000E0C6E72
:100C6000120E0D6E7A0E0E6E000E0F6E5CEC03F01F
:100C70000CC01EF00DC01FF00EC020F00FC021F000
:100C80001EC00CF01FC00DF020C00EF021C00FF0F0
:100C9000400E106E000E116E000E126E000E136EDE
:100CA0005CEC03F00C04AF6EAC94AC98AB8EAC9CD7
:100CB000AC8AAB9CAB881200000E066E000E056E6F
:100CC0006DEF06F0000E0524D96E010E0620DA6ED7
:100CD000DF50E4EC07F0054A062A000E016E010E13
:100CE000026E5DEC07F00150055C02500658D8A07A
:100CF0007CEF06F07EEF06F062EF06F083848386D9
:100D000081B485EF06F087EF06F080EF06F03F0430
:100D10004010D8A48EEF06F090EF06F092EF06F0A8
:100D2000839483961200000E116E000E106EA4EFD5
:100D300006F0D50E1024D96E000E1120DA6EDF50A9
:100D4000D9EC07F0104A112AD50E0C6E000E0D6E6C
:100D500042EC07F00C50105C0D501158D8A0B3EFC6
:100D600006F0B5EF06F099EF06F01200000E116ED6
:100D7000000E106EC7EF06F0E50E1024D96E000EBF
:100D80001120DA6EDF50D9EC07F0104A112AE50E77
:100D90000C6E000E0D6E42EC07F00C50105C0D5006
:100DA0001158D8A0D6EF06F0D8EF06F0BCEF06F049
:100DB0001200000E116E000E106EEAEF06F09F0E8C
:100DC0001024D96E000E1120DA6EDF50D9EC07F036
:100DD000104A112A9F0E0C6E000E0D6E42EC07F0A9
:100DE0000C50105C0D501158D8A0F9EF06F0FBEF35
:100DF00006F0DFEF06F01200000E116E000E106E0E
:100E00000DEF07F0770E1024D96E000E1120DA6E68
:100E1000DF50D9EC07F0104A112A770E0C6E000E45
:100E20000D6E42EC07F00C50105C0D501158D8A01C
:100E30001CEF07F01EEF07F002EF07F01200000EA4
:100E4000116E000E106E30EF07F0B20E1024D96E46
:100E5000000E1120DA6EDF50D9EC07F0104A112A8B
:100E6000B20E0C6E000E0D6E42EC07F00C50105CD2
:100E70000D501158D8A03FEF07F041EF07F025EFD4
:100E800007F012000CC00EF00DC00FF04AEF07F093
:100E90000C4A0D2A0CC0D9FF0DC0DAFFDF50D8A4D0
:100EA00054EF07F056EF07F048EF07F00E500C5CD8
:100EB0000C6E0F500D580D6E120001C003F002C0F1
:100EC00004F065EF07F0014A022A01C0D9FF02C011
:100ED000DAFFDF50D8A46FEF07F071EF07F063EF90
:100EE00007F00350015C016E04500258026E1200BC
:100EF000070EB46E000E836E000E8C6E000E956EA3
:100F0000000E826E000E8B6E000E816E000E8A6ED9
:100F100093688386838412000C500E02F3CF10F086
:100F2000F4CF11F00C500F02F35011260D500E02A9
:100F3000F350112610C00CF011C00DF01200F90E84
:100F4000CB6E7D0EBE6E7D0EBB6E94929494030E9E
:100F5000CA6E0C0EBD6E0C0EBA6E000ECC6ECA843C
:100F600012004904D8A4B7EF07F0B9EF07F0BBEFC0
:100F700007F0BFEF07F03B4A3C2A010E496E120012
:100F8000484143494120415252494241004841436E
:100F90004941204142414A4F00456D657267656E87
:100FA000637920427574746F6E2050726573736537
:100FB00064000C6E9EA8DFEF07F0E1EF07F0DAEFB8
:100FC00007F00CC0ADFF1200016E9EA8EAEF07F01B
:100FD000ECEF07F0E5EF07F001C0ADFF120082B4BF
:100FE000F4EF07F0F6EF07F0F8EF07F0000E496EA8
:100FF00012009EAAFEEF07F000EF08F0F9EF07F0ED
:10100000AE501200D09EF28CF28EF092F188F088F1
:04101000F092120048
:020000040020DA
:08000000FFFFFFFFFFFFFFFF00
:020000040030CA
:0E000000000B1F1EFF0181FF0FC00FE00F401D
:00000001FF
